{
  "contractName": "FoodSupplyChain",
  "abi": [
    {
      "inputs": [],
      "stateMutability": "nonpayable",
      "type": "constructor"
    },
    {
      "anonymous": false,
      "inputs": [
        {
          "indexed": true,
          "internalType": "uint256",
          "name": "batchId",
          "type": "uint256"
        },
        {
          "indexed": false,
          "internalType": "address",
          "name": "inspector",
          "type": "address"
        }
      ],
      "name": "BatchApproved",
      "type": "event"
    },
    {
      "anonymous": false,
      "inputs": [
        {
          "indexed": true,
          "internalType": "uint256",
          "name": "batchId",
          "type": "uint256"
        },
        {
          "indexed": false,
          "internalType": "string",
          "name": "cropType",
          "type": "string"
        },
        {
          "indexed": false,
          "internalType": "string",
          "name": "farmerName",
          "type": "string"
        },
        {
          "indexed": false,
          "internalType": "string",
          "name": "location",
          "type": "string"
        },
        {
          "indexed": false,
          "internalType": "uint256",
          "name": "quantity",
          "type": "uint256"
        },
        {
          "indexed": false,
          "internalType": "uint256",
          "name": "price",
          "type": "uint256"
        },
        {
          "indexed": false,
          "internalType": "string",
          "name": "harvestDate",
          "type": "string"
        }
      ],
      "name": "BatchCreated",
      "type": "event"
    },
    {
      "anonymous": false,
      "inputs": [
        {
          "indexed": true,
          "internalType": "uint256",
          "name": "batchId",
          "type": "uint256"
        },
        {
          "indexed": false,
          "internalType": "string",
          "name": "retailerName",
          "type": "string"
        }
      ],
      "name": "BatchDelivered",
      "type": "event"
    },
    {
      "anonymous": false,
      "inputs": [
        {
          "indexed": true,
          "internalType": "uint256",
          "name": "batchId",
          "type": "uint256"
        },
        {
          "indexed": false,
          "internalType": "address",
          "name": "inspector",
          "type": "address"
        }
      ],
      "name": "BatchRejected",
      "type": "event"
    },
    {
      "anonymous": false,
      "inputs": [
        {
          "indexed": true,
          "internalType": "uint256",
          "name": "batchId",
          "type": "uint256"
        },
        {
          "indexed": false,
          "internalType": "string",
          "name": "vehicleNumber",
          "type": "string"
        },
        {
          "indexed": false,
          "internalType": "string",
          "name": "destination",
          "type": "string"
        }
      ],
      "name": "BatchShipped",
      "type": "event"
    },
    {
      "inputs": [],
      "name": "batchCount",
      "outputs": [
        {
          "internalType": "uint256",
          "name": "",
          "type": "uint256"
        }
      ],
      "stateMutability": "view",
      "type": "function",
      "constant": true
    },
    {
      "inputs": [
        {
          "internalType": "uint256",
          "name": "",
          "type": "uint256"
        }
      ],
      "name": "batches",
      "outputs": [
        {
          "internalType": "uint256",
          "name": "id",
          "type": "uint256"
        },
        {
          "internalType": "string",
          "name": "cropType",
          "type": "string"
        },
        {
          "internalType": "string",
          "name": "farmerName",
          "type": "string"
        },
        {
          "internalType": "string",
          "name": "location",
          "type": "string"
        },
        {
          "internalType": "uint256",
          "name": "quantity",
          "type": "uint256"
        },
        {
          "internalType": "uint256",
          "name": "price",
          "type": "uint256"
        },
        {
          "internalType": "string",
          "name": "harvestDate",
          "type": "string"
        },
        {
          "internalType": "enum FoodSupplyChain.State",
          "name": "state",
          "type": "uint8"
        },
        {
          "internalType": "string",
          "name": "vehicleNumber",
          "type": "string"
        },
        {
          "internalType": "string",
          "name": "destination",
          "type": "string"
        },
        {
          "internalType": "string",
          "name": "retailerName",
          "type": "string"
        },
        {
          "internalType": "bool",
          "name": "exists",
          "type": "bool"
        }
      ],
      "stateMutability": "view",
      "type": "function",
      "constant": true
    },
    {
      "inputs": [],
      "name": "distributor",
      "outputs": [
        {
          "internalType": "address",
          "name": "",
          "type": "address"
        }
      ],
      "stateMutability": "view",
      "type": "function",
      "constant": true
    },
    {
      "inputs": [],
      "name": "inspector",
      "outputs": [
        {
          "internalType": "address",
          "name": "",
          "type": "address"
        }
      ],
      "stateMutability": "view",
      "type": "function",
      "constant": true
    },
    {
      "inputs": [],
      "name": "owner",
      "outputs": [
        {
          "internalType": "address",
          "name": "",
          "type": "address"
        }
      ],
      "stateMutability": "view",
      "type": "function",
      "constant": true
    },
    {
      "inputs": [],
      "name": "retailer",
      "outputs": [
        {
          "internalType": "address",
          "name": "",
          "type": "address"
        }
      ],
      "stateMutability": "view",
      "type": "function",
      "constant": true
    },
    {
      "inputs": [
        {
          "internalType": "address",
          "name": "_inspector",
          "type": "address"
        }
      ],
      "name": "setInspector",
      "outputs": [],
      "stateMutability": "nonpayable",
      "type": "function"
    },
    {
      "inputs": [
        {
          "internalType": "address",
          "name": "_distributor",
          "type": "address"
        }
      ],
      "name": "setDistributor",
      "outputs": [],
      "stateMutability": "nonpayable",
      "type": "function"
    },
    {
      "inputs": [
        {
          "internalType": "address",
          "name": "_retailer",
          "type": "address"
        }
      ],
      "name": "setRetailer",
      "outputs": [],
      "stateMutability": "nonpayable",
      "type": "function"
    },
    {
      "inputs": [
        {
          "internalType": "string",
          "name": "_cropType",
          "type": "string"
        },
        {
          "internalType": "string",
          "name": "_farmerName",
          "type": "string"
        },
        {
          "internalType": "string",
          "name": "_location",
          "type": "string"
        },
        {
          "internalType": "uint256",
          "name": "_quantity",
          "type": "uint256"
        },
        {
          "internalType": "uint256",
          "name": "_price",
          "type": "uint256"
        },
        {
          "internalType": "string",
          "name": "_harvestDate",
          "type": "string"
        }
      ],
      "name": "createBatch",
      "outputs": [],
      "stateMutability": "nonpayable",
      "type": "function"
    },
    {
      "inputs": [
        {
          "internalType": "uint256",
          "name": "_id",
          "type": "uint256"
        }
      ],
      "name": "approveBatch",
      "outputs": [],
      "stateMutability": "nonpayable",
      "type": "function"
    },
    {
      "inputs": [
        {
          "internalType": "uint256",
          "name": "_id",
          "type": "uint256"
        }
      ],
      "name": "rejectBatch",
      "outputs": [],
      "stateMutability": "nonpayable",
      "type": "function"
    },
    {
      "inputs": [
        {
          "internalType": "uint256",
          "name": "_id",
          "type": "uint256"
        },
        {
          "internalType": "string",
          "name": "_vehicleNumber",
          "type": "string"
        },
        {
          "internalType": "string",
          "name": "_destination",
          "type": "string"
        }
      ],
      "name": "shipBatch",
      "outputs": [],
      "stateMutability": "nonpayable",
      "type": "function"
    },
    {
      "inputs": [
        {
          "internalType": "uint256",
          "name": "_id",
          "type": "uint256"
        },
        {
          "internalType": "string",
          "name": "_retailerName",
          "type": "string"
        }
      ],
      "name": "deliverBatch",
      "outputs": [],
      "stateMutability": "nonpayable",
      "type": "function"
    },
    {
      "inputs": [
        {
          "internalType": "uint256",
          "name": "_id",
          "type": "uint256"
        }
      ],
      "name": "getBatch",
      "outputs": [
        {
          "components": [
            {
              "internalType": "uint256",
              "name": "id",
              "type": "uint256"
            },
            {
              "internalType": "string",
              "name": "cropType",
              "type": "string"
            },
            {
              "internalType": "string",
              "name": "farmerName",
              "type": "string"
            },
            {
              "internalType": "string",
              "name": "location",
              "type": "string"
            },
            {
              "internalType": "uint256",
              "name": "quantity",
              "type": "uint256"
            },
            {
              "internalType": "uint256",
              "name": "price",
              "type": "uint256"
            },
            {
              "internalType": "string",
              "name": "harvestDate",
              "type": "string"
            },
            {
              "internalType": "enum FoodSupplyChain.State",
              "name": "state",
              "type": "uint8"
            },
            {
              "internalType": "string",
              "name": "vehicleNumber",
              "type": "string"
            },
            {
              "internalType": "string",
              "name": "destination",
              "type": "string"
            },
            {
              "internalType": "string",
              "name": "retailerName",
              "type": "string"
            },
            {
              "internalType": "bool",
              "name": "exists",
              "type": "bool"
            }
          ],
          "internalType": "struct FoodSupplyChain.FoodBatch",
          "name": "",
          "type": "tuple"
        }
      ],
      "stateMutability": "view",
      "type": "function",
      "constant": true
    },
    {
      "inputs": [
        {
          "internalType": "uint256",
          "name": "_id",
          "type": "uint256"
        }
      ],
      "name": "getStateString",
      "outputs": [
        {
          "internalType": "string",
          "name": "",
          "type": "string"
        }
      ],
      "stateMutability": "view",
      "type": "function",
      "constant": true
    }
  ],
  "bytecode": "0x608060405234801561001057600080fd5b50336000806101000a81548173ffffffffffffffffffffffffffffffffffffffff021916908373ffffffffffffffffffffffffffffffffffffffff160217905550612b69806100606000396000f3fe608060405234801561001057600080fd5b50600436106101005760003560e01c806375619ab511610097578063bfe1092811610066578063bfe10928146102a2578063dd235d9d146102c0578063e7331dca146102dc578063ed2cee9e146102f857610100565b806375619ab514610211578063838b1da31461022d5780638da5cb5b14610249578063b32c4d8d1461026757610100565b80634a1f6125116100d35780634a1f61251461018b5780634c1249fc146101a75780634e5cbf61146101c55780635ac44282146101e157610100565b806306f13056146101055780630ff89fcc1461012357806326e699f21461013f5780633b0dc5de1461016f575b600080fd5b61010d610316565b60405161011a9190612766565b60405180910390f35b61013d600480360381019061013891906121eb565b61031c565b005b6101596004803603810190610154919061216e565b61054f565b60405161016691906125ce565b60405180910390f35b61018960048036038101906101849190612085565b6109ad565b005b6101a560048036038101906101a0919061205c565b610c49565b005b6101af610d1b565b6040516101bc91906125b3565b60405180910390f35b6101df60048036038101906101da919061205c565b610d41565b005b6101fb60048036038101906101f6919061216e565b610e13565b6040516102089190612744565b60405180910390f35b61022b6004803603810190610226919061205c565b611362565b005b6102476004803603810190610242919061216e565b611434565b005b61025161160d565b60405161025e91906125b3565b60405180910390f35b610281600480360381019061027c919061216e565b611631565b6040516102999c9b9a99989796959493929190612781565b60405180910390f35b6102aa611a63565b6040516102b791906125b3565b60405180910390f35b6102da60048036038101906102d5919061216e565b611a89565b005b6102f660048036038101906102f19190612197565b611c62565b005b610300611e66565b60405161030d91906125b3565b60405180910390f35b60055481565b60046000848152602001908152602001600020600b0160009054906101000a900460ff1661037f576040517f08c379a000000000000000000000000000000000000000000000000000000000815260040161037690612724565b60405180910390fd5b600160048111156103b9577f4e487b7100000000000000000000000000000000000000000000000000000000600052602160045260246000fd5b6004600085815260200190815260200160002060070160009054906101000a900460ff166004811115610415577f4e487b7100000000000000000000000000000000000000000000000000000000600052602160045260246000fd5b14610455576040517f08c379a000000000000000000000000000000000000000000000000000000000815260040161044c906126c4565b60405180910390fd5b60036004600085815260200190815260200160002060070160006101000a81548160ff021916908360048111156104b5577f4e487b7100000000000000000000000000000000000000000000000000000000600052602160045260246000fd5b0217905550816004600085815260200190815260200160002060080190805190602001906104e4929190611e8c565b508060046000858152602001908152602001600020600901908051906020019061050f929190611e8c565b50827f3b6a3462c79e893ef593345a3aaf464e483e3b871db147f5d23927e57f69021583836040516105429291906125f0565b60405180910390a2505050565b606060046000838152602001908152602001600020600b0160009054906101000a900460ff166105b4576040517f08c379a00000000000000000000000000000000000000000000000000000000081526004016105ab90612724565b60405180910390fd5b60006004600084815260200190815260200160002060070160009054906101000a900460ff16905060006004811115610616577f4e487b7100000000000000000000000000000000000000000000000000000000600052602160045260246000fd5b81600481111561064f577f4e487b7100000000000000000000000000000000000000000000000000000000600052602160045260246000fd5b1415610693576040518060400160405280600981526020017f48617276657374656400000000000000000000000000000000000000000000008152509150506109a8565b600160048111156106cd577f4e487b7100000000000000000000000000000000000000000000000000000000600052602160045260246000fd5b816004811115610706577f4e487b7100000000000000000000000000000000000000000000000000000000600052602160045260246000fd5b141561074a576040518060400160405280600881526020017f417070726f7665640000000000000000000000000000000000000000000000008152509150506109a8565b60026004811115610784577f4e487b7100000000000000000000000000000000000000000000000000000000600052602160045260246000fd5b8160048111156107bd577f4e487b7100000000000000000000000000000000000000000000000000000000600052602160045260246000fd5b1415610801576040518060400160405280600881526020017f52656a65637465640000000000000000000000000000000000000000000000008152509150506109a8565b6003600481111561083b577f4e487b7100000000000000000000000000000000000000000000000000000000600052602160045260246000fd5b816004811115610874577f4e487b7100000000000000000000000000000000000000000000000000000000600052602160045260246000fd5b14156108b8576040518060400160405280600781526020017f53686970706564000000000000000000000000000000000000000000000000008152509150506109a8565b6004808111156108f1577f4e487b7100000000000000000000000000000000000000000000000000000000600052602160045260246000fd5b81600481111561092a577f4e487b7100000000000000000000000000000000000000000000000000000000600052602160045260246000fd5b141561096e576040518060400160405280600981526020017f44656c69766572656400000000000000000000000000000000000000000000008152509150506109a8565b6040518060400160405280600781526020017f556e6b6e6f776e000000000000000000000000000000000000000000000000008152509150505b919050565b600560008154809291906109c0906129db565b9190505550604051806101800160405280600554815260200187815260200186815260200185815260200184815260200183815260200182815260200160006004811115610a37577f4e487b7100000000000000000000000000000000000000000000000000000000600052602160045260246000fd5b815260200160405180602001604052806000815250815260200160405180602001604052806000815250815260200160405180602001604052806000815250815260200160011515815250600460006005548152602001908152602001600020600082015181600001556020820151816001019080519060200190610abd929190611e8c565b506040820151816002019080519060200190610ada929190611e8c565b506060820151816003019080519060200190610af7929190611e8c565b506080820151816004015560a0820151816005015560c0820151816006019080519060200190610b28929190611e8c565b5060e08201518160070160006101000a81548160ff02191690836004811115610b7a577f4e487b7100000000000000000000000000000000000000000000000000000000600052602160045260246000fd5b0217905550610100820151816008019080519060200190610b9c929190611e8c565b50610120820151816009019080519060200190610bba929190611e8c565b5061014082015181600a019080519060200190610bd8929190611e8c565b5061016082015181600b0160006101000a81548160ff0219169083151502179055509050506005547f34703a5011b74e5653263365f0cfedced1459db7cdd01191df1e0886ed57a631878787878787604051610c3996959493929190612627565b60405180910390a2505050505050565b60008054906101000a900473ffffffffffffffffffffffffffffffffffffffff1673ffffffffffffffffffffffffffffffffffffffff163373ffffffffffffffffffffffffffffffffffffffff1614610cd7576040517f08c379a0000000000000000000000000000000000000000000000000000000008152600401610cce906126a4565b60405180910390fd5b80600360006101000a81548173ffffffffffffffffffffffffffffffffffffffff021916908373ffffffffffffffffffffffffffffffffffffffff16021790555050565b600360009054906101000a900473ffffffffffffffffffffffffffffffffffffffff1681565b60008054906101000a900473ffffffffffffffffffffffffffffffffffffffff1673ffffffffffffffffffffffffffffffffffffffff163373ffffffffffffffffffffffffffffffffffffffff1614610dcf576040517f08c379a0000000000000000000000000000000000000000000000000000000008152600401610dc6906126a4565b60405180910390fd5b80600160006101000a81548173ffffffffffffffffffffffffffffffffffffffff021916908373ffffffffffffffffffffffffffffffffffffffff16021790555050565b610e1b611f12565b60046000838152602001908152602001600020600b0160009054906101000a900460ff16610e7e576040517f08c379a0000000000000000000000000000000000000000000000000000000008152600401610e7590612724565b60405180910390fd5b600460008381526020019081526020016000206040518061018001604052908160008201548152602001600182018054610eb7906129a9565b80601f0160208091040260200160405190810160405280929190818152602001828054610ee3906129a9565b8015610f305780601f10610f0557610100808354040283529160200191610f30565b820191906000526020600020905b815481529060010190602001808311610f1357829003601f168201915b50505050508152602001600282018054610f49906129a9565b80601f0160208091040260200160405190810160405280929190818152602001828054610f75906129a9565b8015610fc25780601f10610f9757610100808354040283529160200191610fc2565b820191906000526020600020905b815481529060010190602001808311610fa557829003601f168201915b50505050508152602001600382018054610fdb906129a9565b80601f0160208091040260200160405190810160405280929190818152602001828054611007906129a9565b80156110545780601f1061102957610100808354040283529160200191611054565b820191906000526020600020905b81548152906001019060200180831161103757829003601f168201915b505050505081526020016004820154815260200160058201548152602001600682018054611081906129a9565b80601f01602080910402602001604051908101604052809291908181526020018280546110ad906129a9565b80156110fa5780601f106110cf576101008083540402835291602001916110fa565b820191906000526020600020905b8154815290600101906020018083116110dd57829003601f168201915b505050505081526020016007820160009054906101000a900460ff16600481111561114e577f4e487b7100000000000000000000000000000000000000000000000000000000600052602160045260246000fd5b6004811115611186577f4e487b7100000000000000000000000000000000000000000000000000000000600052602160045260246000fd5b815260200160088201805461119a906129a9565b80601f01602080910402602001604051908101604052809291908181526020018280546111c6906129a9565b80156112135780601f106111e857610100808354040283529160200191611213565b820191906000526020600020905b8154815290600101906020018083116111f657829003601f168201915b5050505050815260200160098201805461122c906129a9565b80601f0160208091040260200160405190810160405280929190818152602001828054611258906129a9565b80156112a55780601f1061127a576101008083540402835291602001916112a5565b820191906000526020600020905b81548152906001019060200180831161128857829003601f168201915b50505050508152602001600a820180546112be906129a9565b80601f01602080910402602001604051908101604052809291908181526020018280546112ea906129a9565b80156113375780601f1061130c57610100808354040283529160200191611337565b820191906000526020600020905b81548152906001019060200180831161131a57829003601f168201915b50505050508152602001600b820160009054906101000a900460ff1615151515815250509050919050565b60008054906101000a900473ffffffffffffffffffffffffffffffffffffffff1673ffffffffffffffffffffffffffffffffffffffff163373ffffffffffffffffffffffffffffffffffffffff16146113f0576040517f08c379a00000000000000000000000000000000000000000000000000000000081526004016113e7906126a4565b60405180910390fd5b80600260006101000a81548173ffffffffffffffffffffffffffffffffffffffff021916908373ffffffffffffffffffffffffffffffffffffffff16021790555050565b60046000828152602001908152602001600020600b0160009054906101000a900460ff16611497576040517f08c379a000000000000000000000000000000000000000000000000000000000815260040161148e90612724565b60405180910390fd5b600060048111156114d1577f4e487b7100000000000000000000000000000000000000000000000000000000600052602160045260246000fd5b6004600083815260200190815260200160002060070160009054906101000a900460ff16600481111561152d577f4e487b7100000000000000000000000000000000000000000000000000000000600052602160045260246000fd5b1461156d576040517f08c379a0000000000000000000000000000000000000000000000000000000008152600401611564906126e4565b60405180910390fd5b60026004600083815260200190815260200160002060070160006101000a81548160ff021916908360048111156115cd577f4e487b7100000000000000000000000000000000000000000000000000000000600052602160045260246000fd5b0217905550807fa68726894becea6bf1b6bdb1af4ea1fe9aa1d607c386088e68059b17535fbcd93360405161160291906125b3565b60405180910390a250565b60008054906101000a900473ffffffffffffffffffffffffffffffffffffffff1681565b600460205280600052604060002060009150905080600001549080600101805461165a906129a9565b80601f0160208091040260200160405190810160405280929190818152602001828054611686906129a9565b80156116d35780601f106116a8576101008083540402835291602001916116d3565b820191906000526020600020905b8154815290600101906020018083116116b657829003601f168201915b5050505050908060020180546116e8906129a9565b80601f0160208091040260200160405190810160405280929190818152602001828054611714906129a9565b80156117615780601f1061173657610100808354040283529160200191611761565b820191906000526020600020905b81548152906001019060200180831161174457829003601f168201915b505050505090806003018054611776906129a9565b80601f01602080910402602001604051908101604052809291908181526020018280546117a2906129a9565b80156117ef5780601f106117c4576101008083540402835291602001916117ef565b820191906000526020600020905b8154815290600101906020018083116117d257829003601f168201915b505050505090806004015490806005015490806006018054611810906129a9565b80601f016020809104026020016040519081016040528092919081815260200182805461183c906129a9565b80156118895780601f1061185e57610100808354040283529160200191611889565b820191906000526020600020905b81548152906001019060200180831161186c57829003601f168201915b5050505050908060070160009054906101000a900460ff16908060080180546118b1906129a9565b80601f01602080910402602001604051908101604052809291908181526020018280546118dd906129a9565b801561192a5780601f106118ff5761010080835404028352916020019161192a565b820191906000526020600020905b81548152906001019060200180831161190d57829003601f168201915b50505050509080600901805461193f906129a9565b80601f016020809104026020016040519081016040528092919081815260200182805461196b906129a9565b80156119b85780601f1061198d576101008083540402835291602001916119b8565b820191906000526020600020905b81548152906001019060200180831161199b57829003601f168201915b50505050509080600a0180546119cd906129a9565b80601f01602080910402602001604051908101604052809291908181526020018280546119f9906129a9565b8015611a465780601f10611a1b57610100808354040283529160200191611a46565b820191906000526020600020905b815481529060010190602001808311611a2957829003601f168201915b50505050509080600b0160009054906101000a900460ff1690508c565b600260009054906101000a900473ffffffffffffffffffffffffffffffffffffffff1681565b60046000828152602001908152602001600020600b0160009054906101000a900460ff16611aec576040517f08c379a0000000000000000000000000000000000000000000000000000000008152600401611ae390612724565b60405180910390fd5b60006004811115611b26577f4e487b7100000000000000000000000000000000000000000000000000000000600052602160045260246000fd5b6004600083815260200190815260200160002060070160009054906101000a900460ff166004811115611b82577f4e487b7100000000000000000000000000000000000000000000000000000000600052602160045260246000fd5b14611bc2576040517f08c379a0000000000000000000000000000000000000000000000000000000008152600401611bb9906126e4565b60405180910390fd5b60016004600083815260200190815260200160002060070160006101000a81548160ff02191690836004811115611c22577f4e487b7100000000000000000000000000000000000000000000000000000000600052602160045260246000fd5b0217905550807f6cd5f0029f0f2486cf928dbda2afc14875ddab12210209830c85509eac925ca233604051611c5791906125b3565b60405180910390a250565b60046000838152602001908152602001600020600b0160009054906101000a900460ff16611cc5576040517f08c379a0000000000000000000000000000000000000000000000000000000008152600401611cbc90612724565b60405180910390fd5b60036004811115611cff577f4e487b7100000000000000000000000000000000000000000000000000000000600052602160045260246000fd5b6004600084815260200190815260200160002060070160009054906101000a900460ff166004811115611d5b577f4e487b7100000000000000000000000000000000000000000000000000000000600052602160045260246000fd5b14611d9b576040517f08c379a0000000000000000000000000000000000000000000000000000000008152600401611d9290612704565b60405180910390fd5b600480600084815260200190815260200160002060070160006101000a81548160ff02191690836004811115611dfa577f4e487b7100000000000000000000000000000000000000000000000000000000600052602160045260246000fd5b02179055508060046000848152602001908152602001600020600a019080519060200190611e29929190611e8c565b50817f847fbd97df0c9d14cf519ce258894e109f5dfbecf04de019b4423740b1218b4b82604051611e5a91906125ce565b60405180910390a25050565b600160009054906101000a900473ffffffffffffffffffffffffffffffffffffffff1681565b828054611e98906129a9565b90600052602060002090601f016020900481019282611eba5760008555611f01565b82601f10611ed357805160ff1916838001178555611f01565b82800160010185558215611f01579182015b82811115611f00578251825591602001919060010190611ee5565b5b509050611f0e9190611fad565b5090565b6040518061018001604052806000815260200160608152602001606081526020016060815260200160008152602001600081526020016060815260200160006004811115611f89577f4e487b7100000000000000000000000000000000000000000000000000000000600052602160045260246000fd5b81526020016060815260200160608152602001606081526020016000151581525090565b5b80821115611fc6576000816000905550600101611fae565b5090565b6000611fdd611fd88461289d565b61286c565b905082815260208101848484011115611ff557600080fd5b612000848285612967565b509392505050565b60008135905061201781612b05565b92915050565b600082601f83011261202e57600080fd5b813561203e848260208601611fca565b91505092915050565b60008135905061205681612b1c565b92915050565b60006020828403121561206e57600080fd5b600061207c84828501612008565b91505092915050565b60008060008060008060c0878903121561209e57600080fd5b600087013567ffffffffffffffff8111156120b857600080fd5b6120c489828a0161201d565b965050602087013567ffffffffffffffff8111156120e157600080fd5b6120ed89828a0161201d565b955050604087013567ffffffffffffffff81111561210a57600080fd5b61211689828a0161201d565b945050606061212789828a01612047565b935050608061213889828a01612047565b92505060a087013567ffffffffffffffff81111561215557600080fd5b61216189828a0161201d565b9150509295509295509295565b60006020828403121561218057600080fd5b600061218e84828501612047565b91505092915050565b600080604083850312156121aa57600080fd5b60006121b885828601612047565b925050602083013567ffffffffffffffff8111156121d557600080fd5b6121e18582860161201d565b9150509250929050565b60008060006060848603121561220057600080fd5b600061220e86828701612047565b935050602084013567ffffffffffffffff81111561222b57600080fd5b6122378682870161201d565b925050604084013567ffffffffffffffff81111561225457600080fd5b6122608682870161201d565b9150509250925092565b612273816128fa565b82525050565b6122828161290c565b82525050565b6122918161290c565b82525050565b6122a081612955565b82525050565b6122af81612955565b82525050565b60006122c0826128cd565b6122ca81856128d8565b93506122da818560208601612976565b6122e381612ae0565b840191505092915050565b60006122f9826128cd565b61230381856128e9565b9350612313818560208601612976565b61231c81612ae0565b840191505092915050565b6000612334600a836128e9565b91507f4f6e6c79206f776e6572000000000000000000000000000000000000000000006000830152602082019050919050565b60006123746016836128e9565b91507f4261746368206e6f7420617070726f76656420796574000000000000000000006000830152602082019050919050565b60006123b4601c836128e9565b91507f4261746368206e6f7420696e20486172766573746564207374617465000000006000830152602082019050919050565b60006123f46015836128e9565b91507f4261746368206e6f7420736869707065642079657400000000000000000000006000830152602082019050919050565b6000612434600f836128e9565b91507f4261746368206e6f7420666f756e6400000000000000000000000000000000006000830152602082019050919050565b6000610180830160008301516124806000860182612595565b506020830151848203602086015261249882826122b5565b915050604083015184820360408601526124b282826122b5565b915050606083015184820360608601526124cc82826122b5565b91505060808301516124e16080860182612595565b5060a08301516124f460a0860182612595565b5060c083015184820360c086015261250c82826122b5565b91505060e083015161252160e0860182612297565b5061010083015184820361010086015261253b82826122b5565b91505061012083015184820361012086015261255782826122b5565b91505061014083015184820361014086015261257382826122b5565b91505061016083015161258a610160860182612279565b508091505092915050565b61259e8161294b565b82525050565b6125ad8161294b565b82525050565b60006020820190506125c8600083018461226a565b92915050565b600060208201905081810360008301526125e881846122ee565b905092915050565b6000604082019050818103600083015261260a81856122ee565b9050818103602083015261261e81846122ee565b90509392505050565b600060c082019050818103600083015261264181896122ee565b9050818103602083015261265581886122ee565b9050818103604083015261266981876122ee565b905061267860608301866125a4565b61268560808301856125a4565b81810360a083015261269781846122ee565b9050979650505050505050565b600060208201905081810360008301526126bd81612327565b9050919050565b600060208201905081810360008301526126dd81612367565b9050919050565b600060208201905081810360008301526126fd816123a7565b9050919050565b6000602082019050818103600083015261271d816123e7565b9050919050565b6000602082019050818103600083015261273d81612427565b9050919050565b6000602082019050818103600083015261275e8184612467565b905092915050565b600060208201905061277b60008301846125a4565b92915050565b600061018082019050612797600083018f6125a4565b81810360208301526127a9818e6122ee565b905081810360408301526127bd818d6122ee565b905081810360608301526127d1818c6122ee565b90506127e0608083018b6125a4565b6127ed60a083018a6125a4565b81810360c08301526127ff81896122ee565b905061280e60e08301886122a6565b81810361010083015261282181876122ee565b905081810361012083015261283681866122ee565b905081810361014083015261284b81856122ee565b905061285b610160830184612288565b9d9c50505050505050505050505050565b6000604051905081810181811067ffffffffffffffff8211171561289357612892612ab1565b5b8060405250919050565b600067ffffffffffffffff8211156128b8576128b7612ab1565b5b601f19601f8301169050602081019050919050565b600081519050919050565b600082825260208201905092915050565b600082825260208201905092915050565b60006129058261292b565b9050919050565b60008115159050919050565b600081905061292682612af1565b919050565b600073ffffffffffffffffffffffffffffffffffffffff82169050919050565b6000819050919050565b600061296082612918565b9050919050565b82818337600083830152505050565b60005b83811015612994578082015181840152602081019050612979565b838111156129a3576000848401525b50505050565b600060028204905060018216806129c157607f821691505b602082108114156129d5576129d4612a82565b5b50919050565b60006129e68261294b565b91507fffffffffffffffffffffffffffffffffffffffffffffffffffffffffffffffff821415612a1957612a18612a24565b5b600182019050919050565b7f4e487b7100000000000000000000000000000000000000000000000000000000600052601160045260246000fd5b7f4e487b7100000000000000000000000000000000000000000000000000000000600052602160045260246000fd5b7f4e487b7100000000000000000000000000000000000000000000000000000000600052602260045260246000fd5b7f4e487b7100000000000000000000000000000000000000000000000000000000600052604160045260246000fd5b6000601f19601f8301169050919050565b60058110612b0257612b01612a53565b5b50565b612b0e816128fa565b8114612b1957600080fd5b50565b612b258161294b565b8114612b3057600080fd5b5056fea26469706673582212208c802f59223b1049ce86ede14eff3a64a6650f74caad34c51925af91b9fd554e64736f6c63430008000033",
  "immutableReferences": {},
  "source": "// SPDX-License-Identifier: MIT\r\npragma solidity ^0.8.0;\r\n\r\ncontract FoodSupplyChain {\r\n\r\n    // ─── Roles ───────────────────────────────────────────\r\n    address public owner;\r\n    address public inspector;\r\n    address public distributor;\r\n    address public retailer;\r\n\r\n    constructor() {\r\n        owner = msg.sender;\r\n    }\r\n\r\n    function setInspector(address _inspector) public {\r\n        require(msg.sender == owner, \"Only owner\");\r\n        inspector = _inspector;\r\n    }\r\n\r\n    function setDistributor(address _distributor) public {\r\n        require(msg.sender == owner, \"Only owner\");\r\n        distributor = _distributor;\r\n    }\r\n\r\n    function setRetailer(address _retailer) public {\r\n        require(msg.sender == owner, \"Only owner\");\r\n        retailer = _retailer;\r\n    }\r\n\r\n    // ─── State ───────────────────────────────────────────\r\n    enum State {\r\n        Harvested,    // 0\r\n        Approved,     // 1\r\n        Rejected,     // 2\r\n        Shipped,      // 3\r\n        Delivered     // 4\r\n    }\r\n\r\n    struct FoodBatch {\r\n        uint    id;\r\n        string  cropType;\r\n        string  farmerName;\r\n        string  location;\r\n        uint    quantity;\r\n        uint    price;\r\n        string  harvestDate;\r\n        State   state;\r\n        string  vehicleNumber;\r\n        string  destination;\r\n        string  retailerName;\r\n        bool    exists;\r\n    }\r\n\r\n    mapping(uint => FoodBatch) public batches;\r\n    uint public batchCount;\r\n\r\n    // ─── Events ──────────────────────────────────────────\r\n    event BatchCreated(\r\n        uint indexed batchId,\r\n        string cropType,\r\n        string farmerName,\r\n        string location,\r\n        uint quantity,\r\n        uint price,\r\n        string harvestDate\r\n    );\r\n\r\n    event BatchApproved(\r\n        uint indexed batchId,\r\n        address inspector\r\n    );\r\n\r\n    event BatchRejected(\r\n        uint indexed batchId,\r\n        address inspector\r\n    );\r\n\r\n    event BatchShipped(\r\n        uint indexed batchId,\r\n        string vehicleNumber,\r\n        string destination\r\n    );\r\n\r\n    event BatchDelivered(\r\n        uint indexed batchId,\r\n        string retailerName\r\n    );\r\n\r\n    // ─── Functions ───────────────────────────────────────\r\n\r\n    // Farmer registers a food batch\r\n    function createBatch(\r\n        string memory _cropType,\r\n        string memory _farmerName,\r\n        string memory _location,\r\n        uint _quantity,\r\n        uint _price,\r\n        string memory _harvestDate\r\n    ) public {\r\n        batchCount++;\r\n        batches[batchCount] = FoodBatch(\r\n            batchCount,\r\n            _cropType,\r\n            _farmerName,\r\n            _location,\r\n            _quantity,\r\n            _price,\r\n            _harvestDate,\r\n            State.Harvested,\r\n            \"\",\r\n            \"\",\r\n            \"\",\r\n            true\r\n        );\r\n        emit BatchCreated(\r\n            batchCount,\r\n            _cropType,\r\n            _farmerName,\r\n            _location,\r\n            _quantity,\r\n            _price,\r\n            _harvestDate\r\n        );\r\n    }\r\n\r\n    // Inspector approves batch\r\n    function approveBatch(uint _id) public {\r\n        require(batches[_id].exists, \"Batch not found\");\r\n        require(\r\n            batches[_id].state == State.Harvested,\r\n            \"Batch not in Harvested state\"\r\n        );\r\n        batches[_id].state = State.Approved;\r\n        emit BatchApproved(_id, msg.sender);\r\n    }\r\n\r\n    // Inspector rejects batch\r\n    function rejectBatch(uint _id) public {\r\n        require(batches[_id].exists, \"Batch not found\");\r\n        require(\r\n            batches[_id].state == State.Harvested,\r\n            \"Batch not in Harvested state\"\r\n        );\r\n        batches[_id].state = State.Rejected;\r\n        emit BatchRejected(_id, msg.sender);\r\n    }\r\n\r\n    // Distributor ships batch\r\n    function shipBatch(\r\n        uint _id,\r\n        string memory _vehicleNumber,\r\n        string memory _destination\r\n    ) public {\r\n        require(batches[_id].exists, \"Batch not found\");\r\n        require(\r\n            batches[_id].state == State.Approved,\r\n            \"Batch not approved yet\"\r\n        );\r\n        batches[_id].state = State.Shipped;\r\n        batches[_id].vehicleNumber = _vehicleNumber;\r\n        batches[_id].destination = _destination;\r\n        emit BatchShipped(_id, _vehicleNumber, _destination);\r\n    }\r\n\r\n    // Retailer confirms delivery\r\n    function deliverBatch(\r\n        uint _id,\r\n        string memory _retailerName\r\n    ) public {\r\n        require(batches[_id].exists, \"Batch not found\");\r\n        require(\r\n            batches[_id].state == State.Shipped,\r\n            \"Batch not shipped yet\"\r\n        );\r\n        batches[_id].state = State.Delivered;\r\n        batches[_id].retailerName = _retailerName;\r\n        emit BatchDelivered(_id, _retailerName);\r\n    }\r\n\r\n    // Get batch details\r\n    function getBatch(uint _id) public view returns (FoodBatch memory) {\r\n        require(batches[_id].exists, \"Batch not found\");\r\n        return batches[_id];\r\n    }\r\n\r\n    // Get current state as string\r\n    function getStateString(uint _id) public view returns (string memory) {\r\n        require(batches[_id].exists, \"Batch not found\");\r\n        State s = batches[_id].state;\r\n        if (s == State.Harvested)  return \"Harvested\";\r\n        if (s == State.Approved)   return \"Approved\";\r\n        if (s == State.Rejected)   return \"Rejected\";\r\n        if (s == State.Shipped)    return \"Shipped\";\r\n        if (s == State.Delivered)  return \"Delivered\";\r\n        return \"Unknown\";\r\n    }\r\n}\r\n",
  "sourcePath": "C:\\Users\\SRUTHI A\\Desktop\\Foodsecuritychain\\contracts\\FoodSupplyChain.sol",
  "compiler": {
    "name": "solc",
    "version": "0.8.0+commit.c7dfd78e.Emscripten.clang"
  },
  "schemaVersion": "3.4.16",
  "updatedAt": "2026-03-24T14:34:25.500Z",
  "networkType": "ethereum",
  "devdoc": {
    "kind": "dev",
    "methods": {},
    "version": 1
  },
  "userdoc": {
    "kind": "user",
    "methods": {},
    "version": 1
  }
}